{
  "_format": "hh-sol-artifact-1",
  "contractName": "Namer",
  "sourceName": "contracts/Namer.sol",
  "abi": [
    {
      "inputs": [
        {
          "internalType": "address",
          "name": "owner",
          "type": "address"
        }
      ],
      "name": "readName",
      "outputs": [
        {
          "internalType": "string",
          "name": "",
          "type": "string"
        }
      ],
      "stateMutability": "view",
      "type": "function"
    },
    {
      "inputs": [
        {
          "internalType": "string",
          "name": "_name",
          "type": "string"
        }
      ],
      "name": "setName",
      "outputs": [],
      "stateMutability": "nonpayable",
      "type": "function"
    },
    {
      "inputs": [
        {
          "internalType": "uint256",
          "name": "v",
          "type": "uint256"
        }
      ],
      "name": "uintToString",
      "outputs": [
        {
          "internalType": "string",
          "name": "",
          "type": "string"
        }
      ],
      "stateMutability": "pure",
      "type": "function"
    }
  ],
  "bytecode": "0x608060405234801561001057600080fd5b50610b87806100206000396000f3fe608060405234801561001057600080fd5b50600436106100415760003560e01c8063806df95914610046578063c47f002714610076578063e939567914610092575b600080fd5b610060600480360381019061005b9190610669565b6100c2565b60405161006d91906107a1565b60405180910390f35b610090600480360381019061008b9190610692565b610193565b005b6100ac60048036038101906100a791906106d3565b61029b565b6040516100b991906107a1565b60405180910390f35b6060600160008373ffffffffffffffffffffffffffffffffffffffff1673ffffffffffffffffffffffffffffffffffffffff168152602001908152602001600020805461010e90610979565b80601f016020809104026020016040519081016040528092919081815260200182805461013a90610979565b80156101875780601f1061015c57610100808354040283529160200191610187565b820191906000526020600020905b81548152906001019060200180831161016a57829003601f168201915b50505050509050919050565b6000806000836040516101a69190610766565b90815260200160405180910390205414159050801561020c57816101e76000846040516101d39190610766565b90815260200160405180910390205461029b565b6040516020016101f892919061077d565b60405160208183030381529060405261020e565b815b600160003373ffffffffffffffffffffffffffffffffffffffff1673ffffffffffffffffffffffffffffffffffffffff1681526020019081526020016000209080519060200190610260929190610534565b5060016000836040516102739190610766565b908152602001604051809103902060008282546102909190610840565b925050819055505050565b60606000606467ffffffffffffffff8111156102e0577f4e487b7100000000000000000000000000000000000000000000000000000000600052604160045260246000fd5b6040519080825280601f01601f1916602001820160405280156103125781602001600182028036833780820191505090505b50905060005b600084146103ca576000600a8561032f9190610a25565b9050600a8561033e9190610896565b945080603061034d9190610840565b60f81b83838061035c906109dc565b945081518110610395577f4e487b7100000000000000000000000000000000000000000000000000000000600052603260045260246000fd5b60200101907effffffffffffffffffffffffffffffffffffffffffffffffffffffffffffff1916908160001a90535050610318565b60008167ffffffffffffffff81111561040c577f4e487b7100000000000000000000000000000000000000000000000000000000600052604160045260246000fd5b6040519080825280601f01601f19166020018201604052801561043e5781602001600182028036833780820191505090505b50905060005b8281101561052257836001828561045b91906108c7565b61046591906108c7565b8151811061049c577f4e487b7100000000000000000000000000000000000000000000000000000000600052603260045260246000fd5b602001015160f81c60f81b8282815181106104e0577f4e487b7100000000000000000000000000000000000000000000000000000000600052603260045260246000fd5b60200101907effffffffffffffffffffffffffffffffffffffffffffffffffffffffffffff1916908160001a905350808061051a906109dc565b915050610444565b50600081905080945050505050919050565b82805461054090610979565b90600052602060002090601f01602090048101928261056257600085556105a9565b82601f1061057b57805160ff19168380011785556105a9565b828001600101855582156105a9579182015b828111156105a857825182559160200191906001019061058d565b5b5090506105b691906105ba565b5090565b5b808211156105d35760008160009055506001016105bb565b5090565b60006105ea6105e5846107e8565b6107c3565b90508281526020810184848401111561060257600080fd5b61060d848285610937565b509392505050565b60008135905061062481610b23565b92915050565b600082601f83011261063b57600080fd5b813561064b8482602086016105d7565b91505092915050565b60008135905061066381610b3a565b92915050565b60006020828403121561067b57600080fd5b600061068984828501610615565b91505092915050565b6000602082840312156106a457600080fd5b600082013567ffffffffffffffff8111156106be57600080fd5b6106ca8482850161062a565b91505092915050565b6000602082840312156106e557600080fd5b60006106f384828501610654565b91505092915050565b600061070782610819565b6107118185610824565b9350610721818560208601610946565b61072a81610b12565b840191505092915050565b600061074082610819565b61074a8185610835565b935061075a818560208601610946565b80840191505092915050565b60006107728284610735565b915081905092915050565b60006107898285610735565b91506107958284610735565b91508190509392505050565b600060208201905081810360008301526107bb81846106fc565b905092915050565b60006107cd6107de565b90506107d982826109ab565b919050565b6000604051905090565b600067ffffffffffffffff82111561080357610802610ae3565b5b61080c82610b12565b9050602081019050919050565b600081519050919050565b600082825260208201905092915050565b600081905092915050565b600061084b8261092d565b91506108568361092d565b9250827fffffffffffffffffffffffffffffffffffffffffffffffffffffffffffffffff0382111561088b5761088a610a56565b5b828201905092915050565b60006108a18261092d565b91506108ac8361092d565b9250826108bc576108bb610a85565b5b828204905092915050565b60006108d28261092d565b91506108dd8361092d565b9250828210156108f0576108ef610a56565b5b828203905092915050565b60006109068261090d565b9050919050565b600073ffffffffffffffffffffffffffffffffffffffff82169050919050565b6000819050919050565b82818337600083830152505050565b60005b83811015610964578082015181840152602081019050610949565b83811115610973576000848401525b50505050565b6000600282049050600182168061099157607f821691505b602082108114156109a5576109a4610ab4565b5b50919050565b6109b482610b12565b810181811067ffffffffffffffff821117156109d3576109d2610ae3565b5b80604052505050565b60006109e78261092d565b91507fffffffffffffffffffffffffffffffffffffffffffffffffffffffffffffffff821415610a1a57610a19610a56565b5b600182019050919050565b6000610a308261092d565b9150610a3b8361092d565b925082610a4b57610a4a610a85565b5b828206905092915050565b7f4e487b7100000000000000000000000000000000000000000000000000000000600052601160045260246000fd5b7f4e487b7100000000000000000000000000000000000000000000000000000000600052601260045260246000fd5b7f4e487b7100000000000000000000000000000000000000000000000000000000600052602260045260246000fd5b7f4e487b7100000000000000000000000000000000000000000000000000000000600052604160045260246000fd5b6000601f19601f8301169050919050565b610b2c816108fb565b8114610b3757600080fd5b50565b610b438161092d565b8114610b4e57600080fd5b5056fea2646970667358221220d05089de79965bb64b7898533a08b799d26458cd6395bb92305b65a63389d9f964736f6c63430008040033",
  "linkReferences": {},
  "deployedLinkReferences": {}
}